{
  "contractName": "ERCTest5",
  "abi": [
    {
      "constant": true,
      "inputs": [],
      "name": "name",
      "outputs": [
        {
          "name": "",
          "type": "string"
        }
      ],
      "payable": false,
      "stateMutability": "view",
      "type": "function"
    },
    {
      "constant": true,
      "inputs": [],
      "name": "decimals",
      "outputs": [
        {
          "name": "",
          "type": "uint256"
        }
      ],
      "payable": false,
      "stateMutability": "view",
      "type": "function"
    },
    {
      "constant": true,
      "inputs": [],
      "name": "symbol",
      "outputs": [
        {
          "name": "",
          "type": "string"
        }
      ],
      "payable": false,
      "stateMutability": "view",
      "type": "function"
    }
  ],
  "bytecode": "0x60806040526040805190810160405280601a81526020017f546865204669667468204552433230205465737420546f6b656e0000000000008152506000908051906020019061004f9291906100b3565b506040805190810160405280600481526020017f45524335000000000000000000000000000000000000000000000000000000008152506001908051906020019061009b9291906100b3565b5060016002553480156100ad57600080fd5b50610158565b828054600181600116156101000203166002900490600052602060002090601f016020900481019282601f106100f457805160ff1916838001178555610122565b82800160010185558215610122579182015b82811115610121578251825591602001919060010190610106565b5b50905061012f9190610133565b5090565b61015591905b80821115610151576000816000905550600101610139565b5090565b90565b610315806101676000396000f3fe608060405260043610610057576000357c0100000000000000000000000000000000000000000000000000000000900463ffffffff16806306fdde031461005c578063313ce567146100ec57806395d89b4114610117575b600080fd5b34801561006857600080fd5b506100716101a7565b6040518080602001828103825283818151815260200191508051906020019080838360005b838110156100b1578082015181840152602081019050610096565b50505050905090810190601f1680156100de5780820380516001836020036101000a031916815260200191505b509250505060405180910390f35b3480156100f857600080fd5b50610101610245565b6040518082815260200191505060405180910390f35b34801561012357600080fd5b5061012c61024b565b6040518080602001828103825283818151815260200191508051906020019080838360005b8381101561016c578082015181840152602081019050610151565b50505050905090810190601f1680156101995780820380516001836020036101000a031916815260200191505b509250505060405180910390f35b60008054600181600116156101000203166002900480601f01602080910402602001604051908101604052809291908181526020018280546001816001161561010002031660029004801561023d5780601f106102125761010080835404028352916020019161023d565b820191906000526020600020905b81548152906001019060200180831161022057829003601f168201915b505050505081565b60025481565b60018054600181600116156101000203166002900480601f0160208091040260200160405190810160405280929190818152602001828054600181600116156101000203166002900480156102e15780601f106102b6576101008083540402835291602001916102e1565b820191906000526020600020905b8154815290600101906020018083116102c457829003601f168201915b50505050508156fea165627a7a72305820454ae739944077a0608b31309d370b9d49e2d912d73c0f99453048465c050f9d0029",
  "source": "pragma solidity 0.5.0;\n\ncontract ERCTest1 {\n  string public name = \"The First ERC20 Test Token\";\n  string public symbol = \"ERC1\";\n  uint public decimals = 10;\n}\n\ncontract ERCTest2 {\n  string public name = \"The Second ERC20 Test Token\";\n  string public symbol = \"ERC2\";\n  uint public decimals = 20;\n}\n\ncontract ERCTest3 {\n  string public name = \"The Third ERC20 Test Token\";\n  string public symbol = \"ERC3\";\n  uint public decimals = 3;\n}\n\ncontract ERCTest4 {\n  string public name = \"The Fourth ERC20 Test Token\";\n  string public symbol = \"ERC4\";\n  uint public decimals = 4;\n}\n\ncontract ERCTest5 {\n  string public name = \"The Fifth ERC20 Test Token\";\n  string public symbol = \"ERC5\";\n  uint public decimals = 1;\n}\n\ncontract ERC32Bytes {\n  bytes32 public name = \"ERC20 with 32bytes name\";\n  bytes32 public symbol = \"ERC32B\";\n  uint public decimals = 1;\n}",
  "sourcePath": "/Users/jorge/dev/ethfinex/ethtex-registry/contracts/ERC20Test.sol",
  "compiler": {
    "name": "solc",
    "version": "0.5.0+commit.1d4f565a.Emscripten.clang"
  },
  "schemaVersion": "3.0.9",
  "updatedAt": "2019-06-07T13:07:33.266Z",
  "devdoc": {
    "methods": {}
  },
  "userdoc": {
    "methods": {}
  }
}