{
  "contractName": "RegistryLookup",
  "abi": [
    {
      "constant": true,
      "inputs": [
        {
          "name": "",
          "type": "address"
        }
      ],
      "name": "authorisedStatus",
      "outputs": [
        {
          "name": "",
          "type": "bool"
        }
      ],
      "payable": false,
      "stateMutability": "view",
      "type": "function"
    },
    {
      "constant": true,
      "inputs": [
        {
          "name": "",
          "type": "uint256"
        },
        {
          "name": "",
          "type": "uint256"
        }
      ],
      "name": "pairs",
      "outputs": [
        {
          "name": "",
          "type": "uint256"
        }
      ],
      "payable": false,
      "stateMutability": "view",
      "type": "function"
    },
    {
      "constant": true,
      "inputs": [
        {
          "name": "",
          "type": "uint256"
        }
      ],
      "name": "tokensWithPairsLUT",
      "outputs": [
        {
          "name": "",
          "type": "uint256"
        }
      ],
      "payable": false,
      "stateMutability": "view",
      "type": "function"
    },
    {
      "constant": true,
      "inputs": [
        {
          "name": "",
          "type": "uint256"
        }
      ],
      "name": "authorisedTokens",
      "outputs": [
        {
          "name": "",
          "type": "address"
        }
      ],
      "payable": false,
      "stateMutability": "view",
      "type": "function"
    },
    {
      "constant": true,
      "inputs": [],
      "name": "owner",
      "outputs": [
        {
          "name": "",
          "type": "address"
        }
      ],
      "payable": false,
      "stateMutability": "view",
      "type": "function"
    },
    {
      "constant": true,
      "inputs": [],
      "name": "isOwner",
      "outputs": [
        {
          "name": "",
          "type": "bool"
        }
      ],
      "payable": false,
      "stateMutability": "view",
      "type": "function"
    },
    {
      "anonymous": false,
      "inputs": [
        {
          "indexed": false,
          "name": "newToken",
          "type": "address"
        }
      ],
      "name": "AddNewToken",
      "type": "event"
    },
    {
      "anonymous": false,
      "inputs": [
        {
          "indexed": false,
          "name": "token",
          "type": "address"
        }
      ],
      "name": "RemoveToken",
      "type": "event"
    },
    {
      "anonymous": false,
      "inputs": [
        {
          "indexed": true,
          "name": "previousOwner",
          "type": "address"
        },
        {
          "indexed": true,
          "name": "newOwner",
          "type": "address"
        }
      ],
      "name": "OwnershipTransferred",
      "type": "event"
    },
    {
      "constant": false,
      "inputs": [
        {
          "name": "_tokens",
          "type": "address[]"
        }
      ],
      "name": "addNewTokens",
      "outputs": [],
      "payable": false,
      "stateMutability": "nonpayable",
      "type": "function"
    },
    {
      "constant": false,
      "inputs": [
        {
          "name": "_tokens",
          "type": "address[]"
        }
      ],
      "name": "removeTokens",
      "outputs": [],
      "payable": false,
      "stateMutability": "nonpayable",
      "type": "function"
    },
    {
      "constant": true,
      "inputs": [],
      "name": "getAvailableTokens",
      "outputs": [
        {
          "name": "tokens",
          "type": "address[]"
        }
      ],
      "payable": false,
      "stateMutability": "view",
      "type": "function"
    },
    {
      "constant": false,
      "inputs": [
        {
          "name": "_tokenIndex",
          "type": "uint256"
        },
        {
          "name": "_tokenPairsIndexes",
          "type": "uint256[]"
        }
      ],
      "name": "addPairs",
      "outputs": [],
      "payable": false,
      "stateMutability": "nonpayable",
      "type": "function"
    },
    {
      "constant": false,
      "inputs": [
        {
          "name": "_tokenIndex",
          "type": "uint256"
        }
      ],
      "name": "removePairs",
      "outputs": [],
      "payable": false,
      "stateMutability": "nonpayable",
      "type": "function"
    },
    {
      "constant": true,
      "inputs": [],
      "name": "getTokenIndexesWithPairs",
      "outputs": [
        {
          "name": "",
          "type": "uint256[]"
        }
      ],
      "payable": false,
      "stateMutability": "view",
      "type": "function"
    },
    {
      "constant": true,
      "inputs": [
        {
          "name": "_index",
          "type": "uint256"
        }
      ],
      "name": "getPairsForTokenByIndex",
      "outputs": [
        {
          "name": "result",
          "type": "uint256[]"
        }
      ],
      "payable": false,
      "stateMutability": "view",
      "type": "function"
    },
    {
      "constant": true,
      "inputs": [
        {
          "name": "_tokens",
          "type": "address[]"
        }
      ],
      "name": "getTokenData",
      "outputs": [
        {
          "name": "names",
          "type": "string[]"
        },
        {
          "name": "symbols",
          "type": "string[]"
        },
        {
          "name": "decimals",
          "type": "uint256[]"
        }
      ],
      "payable": false,
      "stateMutability": "view",
      "type": "function"
    },
    {
      "constant": true,
      "inputs": [
        {
          "name": "trader",
          "type": "address"
        },
        {
          "name": "assetAddresses",
          "type": "address[]"
        }
      ],
      "name": "getExternalBalances",
      "outputs": [
        {
          "name": "",
          "type": "uint256[]"
        }
      ],
      "payable": false,
      "stateMutability": "view",
      "type": "function"
    }
  ],
  "bytecode": "0x6080604052336000806101000a81548173ffffffffffffffffffffffffffffffffffffffff021916908373ffffffffffffffffffffffffffffffffffffffff1602179055506000809054906101000a900473ffffffffffffffffffffffffffffffffffffffff1673ffffffffffffffffffffffffffffffffffffffff16600073ffffffffffffffffffffffffffffffffffffffff167f8be0079c531659141344cd1fd0a4f28419497f9722a3daafe3b4186f6b6457e060405160405180910390a3612104806100cf6000396000f3fe6080604052600436106100db576000357c0100000000000000000000000000000000000000000000000000000000900463ffffffff1680632e73288b146100e05780633ee7af551461010957806348f796d8146101465780635702fd971461016f578063675b4ef1146101ac578063678f56c3146101e95780636c3824ef14610212578063809a865d1461023b5780638cce6fca146102785780638da5cb5b146102b55780638f32d59b146102e05780639fd1dab01461030b578063bf2eb19e14610336578063c371472314610375578063e35568cb146103b2575b600080fd5b3480156100ec57600080fd5b50610107600480360361010291908101906118fc565b6103dd565b005b34801561011557600080fd5b50610130600480360361012b919081019061187f565b610561565b60405161013d9190611e32565b60405180910390f35b34801561015257600080fd5b5061016d600480360361016891908101906119a7565b610581565b005b34801561017b57600080fd5b50610196600480360361019191908101906119a7565b6105b6565b6040516101a39190611e10565b60405180910390f35b3480156101b857600080fd5b506101d360048036036101ce9190810190611a4d565b61075d565b6040516101e09190611ecd565b60405180910390f35b3480156101f557600080fd5b50610210600480360361020b91908101906119f9565b61078d565b005b34801561021e57600080fd5b50610239600480360361023491908101906118fc565b610966565b005b34801561024757600080fd5b50610262600480360361025d91908101906119a7565b610b1a565b60405161026f9190611ecd565b60405180910390f35b34801561028457600080fd5b5061029f600480360361029a91908101906119a7565b610b3d565b6040516102ac9190611d87565b60405180910390f35b3480156102c157600080fd5b506102ca610b7b565b6040516102d79190611d87565b60405180910390f35b3480156102ec57600080fd5b506102f5610ba4565b6040516103029190611e32565b60405180910390f35b34801561031757600080fd5b50610320610bfb565b60405161032d9190611e10565b60405180910390f35b34801561034257600080fd5b5061035d600480360361035891908101906118fc565b610c53565b60405161036c93929190611dc4565b60405180910390f35b34801561038157600080fd5b5061039c600480360361039791908101906118a8565b610e8f565b6040516103a99190611e10565b60405180910390f35b3480156103be57600080fd5b506103c7610fc4565b6040516103d49190611da2565b60405180910390f35b6103e5610ba4565b15156103f057600080fd5b60008090505b81518163ffffffff16101561055d576001806000848463ffffffff1681518110151561041e57fe5b9060200190602002015173ffffffffffffffffffffffffffffffffffffffff1673ffffffffffffffffffffffffffffffffffffffff16815260200190815260200160002060006101000a81548160ff0219169083151502179055506002828263ffffffff1681518110151561048f57fe5b9060200190602002015190806001815401808255809150509060018203906000526020600020016000909192909190916101000a81548173ffffffffffffffffffffffffffffffffffffffff021916908373ffffffffffffffffffffffffffffffffffffffff160217905550507f42fb71c04e6650a34983ed55f09500bef00b288f2152356b1857630026235f12828263ffffffff1681518110151561053157fe5b906020019060200201516040516105489190611d87565b60405180910390a180806001019150506103f6565b5050565b60016020528060005260406000206000915054906101000a900460ff1681565b610589610ba4565b151561059457600080fd5b6003600082815260200190815260200160002060006105b39190611675565b50565b606060036000838152602001908152602001600020805490506040519080825280602002602001820160405280156105fd5781602001602082028038833980820191505090505b50905060008090505b60036000848152602001908152602001600020805490508110156107575760011515600160006002600360008881526020019081526020016000208581548110151561064e57fe5b906000526020600020015481548110151561066557fe5b9060005260206000200160009054906101000a900473ffffffffffffffffffffffffffffffffffffffff1673ffffffffffffffffffffffffffffffffffffffff1673ffffffffffffffffffffffffffffffffffffffff16815260200190815260200160002060009054906101000a900460ff161515141561072c57600360008481526020019081526020016000208181548110151561070057fe5b9060005260206000200154828281518110151561071957fe5b906020019060200201818152505061074a565b82828281518110151561073b57fe5b90602001906020020181815250505b8080600101915050610606565b50919050565b60036020528160005260406000208181548110151561077857fe5b90600052602060002001600091509150505481565b610795610ba4565b15156107a057600080fd5b600280549050821015156107e9576040517f08c379a00000000000000000000000000000000000000000000000000000000081526004016107e090611e8d565b60405180910390fd5b60008090505b815181101561096157600280549050828281518110151561080c57fe5b90602001906020020151101515610858576040517f08c379a000000000000000000000000000000000000000000000000000000000815260040161084f90611e6d565b60405180910390fd5b82828281518110151561086757fe5b90602001906020020151141515156108b4576040517f08c379a00000000000000000000000000000000000000000000000000000000081526004016108ab90611e4d565b60405180910390fd5b6000600360008581526020019081526020016000208054905014156109005760048390806001815401808255809150509060018203906000526020600020016000909192909190915055505b60036000848152602001908152602001600020828281518110151561092157fe5b90602001906020020151908060018154018082558091505090600182039060005260206000200160009091929091909150555080806001019150506107ef565b505050565b61096e610ba4565b151561097957600080fd5b60008090505b81518163ffffffff161015610b16576001151560016000848463ffffffff168151811015156109aa57fe5b9060200190602002015173ffffffffffffffffffffffffffffffffffffffff1673ffffffffffffffffffffffffffffffffffffffff16815260200190815260200160002060009054906101000a900460ff161515141515610a40576040517f08c379a0000000000000000000000000000000000000000000000000000000008152600401610a3790611ead565b60405180910390fd5b600060016000848463ffffffff16815181101515610a5a57fe5b9060200190602002015173ffffffffffffffffffffffffffffffffffffffff1673ffffffffffffffffffffffffffffffffffffffff16815260200190815260200160002060006101000a81548160ff0219169083151502179055507f4eb129c82dcd3eedb52df2b0e6fb4cfa41ac64ee9d63ff081acbb1877e85d79b828263ffffffff16815181101515610aea57fe5b90602001906020020151604051610b019190611d87565b60405180910390a1808060010191505061097f565b5050565b600481815481101515610b2957fe5b906000526020600020016000915090505481565b600281815481101515610b4c57fe5b906000526020600020016000915054906101000a900473ffffffffffffffffffffffffffffffffffffffff1681565b60008060009054906101000a900473ffffffffffffffffffffffffffffffffffffffff16905090565b60008060009054906101000a900473ffffffffffffffffffffffffffffffffffffffff1673ffffffffffffffffffffffffffffffffffffffff163373ffffffffffffffffffffffffffffffffffffffff1614905090565b60606004805480602002602001604051908101604052809291908181526020018280548015610c4957602002820191906000526020600020905b815481526020019060010190808311610c35575b5050505050905090565b60608060608351604051908082528060200260200182016040528015610c8d57816020015b6060815260200190600190039081610c785790505b5092508351604051908082528060200260200182016040528015610cc557816020015b6060815260200190600190039081610cb05790505b5091508351604051908082528060200260200182016040528015610cf85781602001602082028038833980820191505090505b50905060008090505b84518163ffffffff161015610e8757610d36858263ffffffff16815181101515610d2757fe5b906020019060200201516111a0565b848263ffffffff16815181101515610d4a57fe5b90602001906020020181905250610d7d858263ffffffff16815181101515610d6e57fe5b90602001906020020151611303565b838263ffffffff16815181101515610d9157fe5b90602001906020020181905250848163ffffffff16815181101515610db257fe5b9060200190602002015173ffffffffffffffffffffffffffffffffffffffff1663313ce5676040518163ffffffff167c010000000000000000000000000000000000000000000000000000000002815260040160206040518083038186803b158015610e1d57600080fd5b505afa158015610e31573d6000803e3d6000fd5b505050506040513d601f19601f82011682018060405250610e559190810190611a89565b60ff16828263ffffffff16815181101515610e6c57fe5b90602001906020020181815250508080600101915050610d01565b509193909250565b6060808251604051908082528060200260200182016040528015610ec25781602001602082028038833980820191505090505b50905060008090505b8351811015610fb9578381815181101515610ee257fe5b9060200190602002015173ffffffffffffffffffffffffffffffffffffffff166370a08231866040518263ffffffff167c0100000000000000000000000000000000000000000000000000000000028152600401610f409190611d87565b60206040518083038186803b158015610f5857600080fd5b505afa158015610f6c573d6000803e3d6000fd5b505050506040513d601f19601f82011682018060405250610f9091908101906119d0565b8282815181101515610f9e57fe5b90602001906020020181815250508080600101915050610ecb565b508091505092915050565b6060600280549050604051908082528060200260200182016040528015610ffa5781602001602082028038833980820191505090505b50905060008090505b6002805490508163ffffffff16101561119c576001600060028363ffffffff1681548110151561102f57fe5b9060005260206000200160009054906101000a900473ffffffffffffffffffffffffffffffffffffffff1673ffffffffffffffffffffffffffffffffffffffff1673ffffffffffffffffffffffffffffffffffffffff16815260200190815260200160002060009054906101000a900460ff161561113c5760028163ffffffff168154811015156110bc57fe5b9060005260206000200160009054906101000a900473ffffffffffffffffffffffffffffffffffffffff16828263ffffffff168151811015156110fb57fe5b9060200190602002019073ffffffffffffffffffffffffffffffffffffffff16908173ffffffffffffffffffffffffffffffffffffffff168152505061118f565b6000828263ffffffff1681518110151561115257fe5b9060200190602002019073ffffffffffffffffffffffffffffffffffffffff16908173ffffffffffffffffffffffffffffffffffffffff16815250505b8080600101915050611003565b5090565b6060806112458373ffffffffffffffffffffffffffffffffffffffff166306fdde036040518163ffffffff167c010000000000000000000000000000000000000000000000000000000002815260040160206040518083038186803b15801561120857600080fd5b505afa15801561121c573d6000803e3d6000fd5b505050506040513d601f19601f82011682018060405250611240919081019061193d565b611466565b90506060819050600181511115156112f9578373ffffffffffffffffffffffffffffffffffffffff166306fdde036040518163ffffffff167c010000000000000000000000000000000000000000000000000000000002815260040160006040518083038186803b1580156112b957600080fd5b505afa1580156112cd573d6000803e3d6000fd5b505050506040513d6000823e3d601f19601f820116820180604052506112f69190810190611966565b91505b8192505050919050565b6060806113a88373ffffffffffffffffffffffffffffffffffffffff166395d89b416040518163ffffffff167c010000000000000000000000000000000000000000000000000000000002815260040160206040518083038186803b15801561136b57600080fd5b505afa15801561137f573d6000803e3d6000fd5b505050506040513d601f19601f820116820180604052506113a3919081019061193d565b611466565b905060608190506001815111151561145c578373ffffffffffffffffffffffffffffffffffffffff166395d89b416040518163ffffffff167c010000000000000000000000000000000000000000000000000000000002815260040160006040518083038186803b15801561141c57600080fd5b505afa158015611430573d6000803e3d6000fd5b505050506040513d6000823e3d601f19601f820116820180604052506114599190810190611966565b91505b8192505050919050565b60608060206040519080825280601f01601f19166020018201604052801561149d5781602001600182028038833980820191505090505b509050600080905060008090505b602081101561156c5760008160080260020a866001900402600102905060007f010000000000000000000000000000000000000000000000000000000000000002817effffffffffffffffffffffffffffffffffffffffffffffffffffffffffffff191614151561155e5780848481518110151561152557fe5b9060200101907effffffffffffffffffffffffffffffffffffffffffffffffffffffffffffff1916908160001a90535082806001019350505b5080806001019150506114ab565b506060816040519080825280601f01601f1916602001820160405280156115a25781602001600182028038833980820191505090505b50905060008090505b828163ffffffff16101561166957838163ffffffff168151811015156115cd57fe5b9060200101517f010000000000000000000000000000000000000000000000000000000000000090047f010000000000000000000000000000000000000000000000000000000000000002828263ffffffff1681518110151561162c57fe5b9060200101907effffffffffffffffffffffffffffffffffffffffffffffffffffffffffffff1916908160001a90535080806001019150506115ab565b50809350505050919050565b50805460008255906000526020600020908101906116939190611696565b50565b6116b891905b808211156116b457600081600090555060010161169c565b5090565b90565b60006116c78235612053565b905092915050565b600082601f83011215156116e257600080fd5b81356116f56116f082611f15565b611ee8565b9150818183526020840193506020810190508385602084028201111561171a57600080fd5b60005b8381101561174a578161173088826116bb565b84526020840193506020830192505060018101905061171d565b5050505092915050565b600082601f830112151561176757600080fd5b813561177a61177582611f3d565b611ee8565b9150818183526020840193506020810190508385602084028201111561179f57600080fd5b60005b838110156117cf57816117b58882611843565b8452602084019350602083019250506001810190506117a2565b5050505092915050565b60006117e58251612065565b905092915050565b600082601f830112151561180057600080fd5b815161181361180e82611f65565b611ee8565b9150808252602083016020830185838301111561182f57600080fd5b61183a838284612086565b50505092915050565b600061184f823561206f565b905092915050565b6000611863825161206f565b905092915050565b60006118778251612079565b905092915050565b60006020828403121561189157600080fd5b600061189f848285016116bb565b91505092915050565b600080604083850312156118bb57600080fd5b60006118c9858286016116bb565b925050602083013567ffffffffffffffff8111156118e657600080fd5b6118f2858286016116cf565b9150509250929050565b60006020828403121561190e57600080fd5b600082013567ffffffffffffffff81111561192857600080fd5b611934848285016116cf565b91505092915050565b60006020828403121561194f57600080fd5b600061195d848285016117d9565b91505092915050565b60006020828403121561197857600080fd5b600082015167ffffffffffffffff81111561199257600080fd5b61199e848285016117ed565b91505092915050565b6000602082840312156119b957600080fd5b60006119c784828501611843565b91505092915050565b6000602082840312156119e257600080fd5b60006119f084828501611857565b91505092915050565b60008060408385031215611a0c57600080fd5b6000611a1a85828601611843565b925050602083013567ffffffffffffffff811115611a3757600080fd5b611a4385828601611754565b9150509250929050565b60008060408385031215611a6057600080fd5b6000611a6e85828601611843565b9250506020611a7f85828601611843565b9150509250929050565b600060208284031215611a9b57600080fd5b6000611aa98482850161186b565b91505092915050565b611abb8161200b565b82525050565b6000611acc82611fb8565b808452602084019350611ade83611f91565b60005b82811015611b1057611af4868351611ab2565b611afd82611fe4565b9150602086019550600181019050611ae1565b50849250505092915050565b6000611b2782611fc3565b80845260208401935083602082028501611b4085611f9e565b60005b84811015611b79578383038852611b5b838351611bf4565b9250611b6682611ff1565b9150602088019750600181019050611b43565b508196508694505050505092915050565b6000611b9582611fce565b808452602084019350611ba783611fab565b60005b82811015611bd957611bbd868351611d78565b611bc682611ffe565b9150602086019550600181019050611baa565b50849250505092915050565b611bee8161201d565b82525050565b6000611bff82611fd9565b808452611c13816020860160208601612086565b611c1c816120b9565b602085010191505092915050565b6000602582527f6120746f6b656e2063616e27742068617665206120706169722077697468206960208301527f7473656c660000000000000000000000000000000000000000000000000000006040830152606082019050919050565b6000602a82527f6120746f6b656e20646f65736e2774206578697374206f6e20746f6b656e506160208301527f697273496e6465786573000000000000000000000000000000000000000000006040830152606082019050919050565b6000602282527f746f6b656e20646f65736e2774206578697374206f6e20746f6b656e496e646560208301527f78200000000000000000000000000000000000000000000000000000000000006040830152606082019050919050565b6000601582527f746f6b656e20616c72656164792072656d6f76656400000000000000000000006020830152604082019050919050565b611d8181612049565b82525050565b6000602082019050611d9c6000830184611ab2565b92915050565b60006020820190508181036000830152611dbc8184611ac1565b905092915050565b60006060820190508181036000830152611dde8186611b1c565b90508181036020830152611df28185611b1c565b90508181036040830152611e068184611b8a565b9050949350505050565b60006020820190508181036000830152611e2a8184611b8a565b905092915050565b6000602082019050611e476000830184611be5565b92915050565b60006020820190508181036000830152611e6681611c2a565b9050919050565b60006020820190508181036000830152611e8681611c87565b9050919050565b60006020820190508181036000830152611ea681611ce4565b9050919050565b60006020820190508181036000830152611ec681611d41565b9050919050565b6000602082019050611ee26000830184611d78565b92915050565b6000604051905081810181811067ffffffffffffffff82111715611f0b57600080fd5b8060405250919050565b600067ffffffffffffffff821115611f2c57600080fd5b602082029050602081019050919050565b600067ffffffffffffffff821115611f5457600080fd5b602082029050602081019050919050565b600067ffffffffffffffff821115611f7c57600080fd5b601f19601f8301169050602081019050919050565b6000602082019050919050565b6000602082019050919050565b6000602082019050919050565b600081519050919050565b600081519050919050565b600081519050919050565b600081519050919050565b6000602082019050919050565b6000602082019050919050565b6000602082019050919050565b600061201682612029565b9050919050565b60008115159050919050565b600073ffffffffffffffffffffffffffffffffffffffff82169050919050565b6000819050919050565b600061205e82612029565b9050919050565b6000819050919050565b6000819050919050565b600060ff82169050919050565b60005b838110156120a4578082015181840152602081019050612089565b838111156120b3576000848401525b50505050565b6000601f19601f830116905091905056fea265627a7a723058208bfe6256acda74db726fe2fcaded481ebef189e5121cfbb9830dd61a0f4938c36c6578706572696d656e74616cf50037",
  "source": "pragma solidity 0.5.0;\npragma experimental ABIEncoderV2;\n\ncontract Ownable {\n  address private _owner;\n\n  event OwnershipTransferred(\n    address indexed previousOwner,\n    address indexed newOwner\n  );\n\n  /**\n   * @dev The Ownable constructor sets the original `owner` of the contract to the sender\n   * account.\n   */\n  constructor() internal {\n    _owner = msg.sender;\n    emit OwnershipTransferred(address(0), _owner);\n  }\n\n  /**\n   * @return the address of the owner.\n   */\n  function owner() public view returns(address) {\n    return _owner;\n  }\n\n  /**\n   * @dev Throws if called by any account other than the owner.\n   */\n  modifier onlyOwner() {\n    require(isOwner());\n    _;\n  }\n  \n  /**\n   * @return true if `msg.sender` is the owner of the contract.\n   */\n  function isOwner() public view returns(bool) {\n    return msg.sender == _owner;\n  }\n}\n\ncontract ERC20Interface {\n  function name() public view returns (string memory);\n  function symbol() public view returns (string memory);\n  function decimals() public view returns (uint8);\n  function balanceOf(address _owner) public view returns (uint256 balance);\n}\n\ncontract ERC20BadInterface {\n  function name() public view returns (bytes32);\n  function symbol() public view returns (bytes32);\n  function decimals() public view returns (uint8);\n  function balanceOf(address _owner) public view returns (uint256 balance);\n}\n\ncontract RegistryLookup is Ownable{\n\n    mapping (address => bool) public authorisedStatus;\n    event AddNewToken(address newToken);\n    event RemoveToken(address token);\n\n    address[] public authorisedTokens;\n\n    function addNewTokens(address[] memory _tokens) public onlyOwner {\n        for (uint32 i = 0; i < _tokens.length; i++) {\n            authorisedStatus[_tokens[i]] = true;\n            authorisedTokens.push(_tokens[i]);\n            emit AddNewToken(_tokens[i]);\n        }\n    }\n\n    function removeTokens(address[] memory _tokens) public onlyOwner {\n        for (uint32 i = 0; i < _tokens.length; i++) {\n            require(authorisedStatus[_tokens[i]] == true, \"token already removed\");\n            authorisedStatus[_tokens[i]] = false;\n            emit RemoveToken(_tokens[i]);\n        }\n    }\n\n    function getAvailableTokens() public view returns(address[] memory tokens) {\n        tokens = new address[](authorisedTokens.length);\n\n        for (uint32 i = 0; i < authorisedTokens.length; i++) {\n            if (authorisedStatus[authorisedTokens[i]]) {\n                tokens[i] = authorisedTokens[i];\n            } else {\n                tokens[i] = address(0);\n            }\n        }\n    }\n\n    mapping (uint => uint[]) public pairs;\n    uint[] public tokensWithPairsLUT;\n\n    // Adds N pairs for a given token (by index stored on authorisedTokens)\n    function addPairs(uint _tokenIndex, uint[] memory _tokenPairsIndexes) public onlyOwner {\n      require(_tokenIndex < authorisedTokens.length, \"token doesn't exist on tokenIndex \");\n      for( uint i = 0; i < _tokenPairsIndexes.length; i++ ){\n        require(_tokenPairsIndexes[i] < authorisedTokens.length, \"a token doesn't exist on tokenPairsIndexes\");\n        require(_tokenPairsIndexes[i] != _tokenIndex, \"a token can't have a pair with itself\");\n        if(pairs[_tokenIndex].length == 0) {\n          tokensWithPairsLUT.push(_tokenIndex);\n        }\n        pairs[_tokenIndex].push(_tokenPairsIndexes[i]);\n      }\n    }\n\n    function removePairs( uint _tokenIndex ) public onlyOwner {\n      delete pairs[_tokenIndex];\n    }\n\n    function getTokenIndexesWithPairs() public view returns(uint[] memory) {\n      return tokensWithPairsLUT;\n    }\n\n    function getPairsForTokenByIndex(uint _index) public view returns(uint[] memory result) {\n      result = new uint[](pairs[_index].length);\n      for( uint i = 0; i < pairs[_index].length; i++ ) {\n        if(authorisedStatus[authorisedTokens[pairs[_index][i]]] == true){\n          result[i] = pairs[_index][i];\n        } else {\n          // removed tokens will be sent as _index (better than 0, because tokens cant have a pair with itself, while 0 is a valid index)\n          result[i] = _index;\n        }\n      }\n    }\n\n    function bytes32ToString(bytes32 x) private pure returns (string memory) {\n      bytes memory bytesString = new bytes(32);\n      uint charCount = 0;\n      for (uint j = 0; j < 32; j++) {\n        byte char = byte(bytes32(uint(x) * 2 ** (8 * j)));\n        if (char != 0) {\n          bytesString[charCount] = char;\n          charCount++;\n        }\n      }\n      bytes memory bytesStringTrimmed = new bytes(charCount);\n      for (uint32 j = 0; j < charCount; j++) {\n        bytesStringTrimmed[j] = bytesString[j];\n      }\n      return string(bytesStringTrimmed);\n    }\n\n    function getTokenName(address tokenAddress) private view returns (string memory){\n      // check if bytes32 call returns correctly\n      string memory name = bytes32ToString(ERC20BadInterface(tokenAddress).name());\n      bytes memory nameBytes = bytes(name);\n      if(nameBytes.length <= 1){\n        name = ERC20Interface(tokenAddress).name();\n      }\n      return name;\n    }\n\n    function getTokenSymbol(address tokenAddress) private view returns (string memory){\n      // check if bytes32 call returns correctly\n      string memory symbol = bytes32ToString(ERC20BadInterface(tokenAddress).symbol());\n      bytes memory symbolBytes = bytes(symbol);\n      if(symbolBytes.length <= 1){\n        symbol = ERC20Interface(tokenAddress).symbol();\n      }\n      return symbol;\n    }\n\n    // get name, symbol and decimals for multiple tokens\n    function getTokenData(address[] memory _tokens) public view returns (\n      string[] memory names, string[] memory symbols, uint[] memory decimals\n      ) {\n      names = new string[](_tokens.length);\n      symbols = new string[](_tokens.length);\n      decimals = new uint[](_tokens.length);\n      for (uint32 i = 0; i < _tokens.length; i++) {\n        names[i] = getTokenName(_tokens[i]);\n        symbols[i] = getTokenSymbol(_tokens[i]);\n        decimals[i] = ERC20Interface(_tokens[i]).decimals();\n      }\n    }\n\n    // get external balance of multiple tokens\n    function getExternalBalances(address trader, address[] memory assetAddresses) public view returns (uint256[] memory) {\n        uint256[] memory balances = new uint256[](assetAddresses.length);\n        for (uint i = 0; i < assetAddresses.length; i++) {\n            balances[i] = ERC20Interface(assetAddresses[i]).balanceOf(trader);\n        }\n        return balances;\n    }\n\n}",
  "sourcePath": "/Users/jorge/dev/ethfinex/ethtex-registry/contracts/RegistryLookup.sol",
  "compiler": {
    "name": "solc",
    "version": "0.5.0+commit.1d4f565a.Emscripten.clang"
  },
  "schemaVersion": "3.0.9",
  "updatedAt": "2019-06-07T12:14:15.857Z",
  "devdoc": {
    "methods": {
      "isOwner()": {
        "return": "true if `msg.sender` is the owner of the contract."
      },
      "owner()": {
        "return": "the address of the owner."
      }
    }
  },
  "userdoc": {
    "methods": {}
  }
}