{
  "contractName": "RegistryLookup",
  "abi": [
    {
      "constant": true,
      "inputs": [
        {
          "name": "",
          "type": "address"
        }
      ],
      "name": "authorisedStatus",
      "outputs": [
        {
          "name": "",
          "type": "bool"
        }
      ],
      "payable": false,
      "stateMutability": "view",
      "type": "function"
    },
    {
      "constant": true,
      "inputs": [
        {
          "name": "",
          "type": "uint256"
        },
        {
          "name": "",
          "type": "uint256"
        }
      ],
      "name": "pairs",
      "outputs": [
        {
          "name": "",
          "type": "uint256"
        }
      ],
      "payable": false,
      "stateMutability": "view",
      "type": "function"
    },
    {
      "constant": true,
      "inputs": [
        {
          "name": "",
          "type": "uint256"
        }
      ],
      "name": "tokensWithPairsLUT",
      "outputs": [
        {
          "name": "",
          "type": "uint256"
        }
      ],
      "payable": false,
      "stateMutability": "view",
      "type": "function"
    },
    {
      "constant": true,
      "inputs": [
        {
          "name": "",
          "type": "uint256"
        }
      ],
      "name": "authorisedTokens",
      "outputs": [
        {
          "name": "",
          "type": "address"
        }
      ],
      "payable": false,
      "stateMutability": "view",
      "type": "function"
    },
    {
      "constant": true,
      "inputs": [],
      "name": "owner",
      "outputs": [
        {
          "name": "",
          "type": "address"
        }
      ],
      "payable": false,
      "stateMutability": "view",
      "type": "function"
    },
    {
      "constant": true,
      "inputs": [],
      "name": "isOwner",
      "outputs": [
        {
          "name": "",
          "type": "bool"
        }
      ],
      "payable": false,
      "stateMutability": "view",
      "type": "function"
    },
    {
      "anonymous": false,
      "inputs": [
        {
          "indexed": false,
          "name": "newToken",
          "type": "address"
        }
      ],
      "name": "AddNewToken",
      "type": "event"
    },
    {
      "anonymous": false,
      "inputs": [
        {
          "indexed": false,
          "name": "token",
          "type": "address"
        }
      ],
      "name": "RemoveToken",
      "type": "event"
    },
    {
      "anonymous": false,
      "inputs": [
        {
          "indexed": true,
          "name": "previousOwner",
          "type": "address"
        },
        {
          "indexed": true,
          "name": "newOwner",
          "type": "address"
        }
      ],
      "name": "OwnershipTransferred",
      "type": "event"
    },
    {
      "constant": false,
      "inputs": [
        {
          "name": "_tokens",
          "type": "address[]"
        }
      ],
      "name": "addNewTokens",
      "outputs": [],
      "payable": false,
      "stateMutability": "nonpayable",
      "type": "function"
    },
    {
      "constant": false,
      "inputs": [
        {
          "name": "_tokens",
          "type": "address[]"
        }
      ],
      "name": "removeTokens",
      "outputs": [],
      "payable": false,
      "stateMutability": "nonpayable",
      "type": "function"
    },
    {
      "constant": true,
      "inputs": [],
      "name": "getAvailableTokens",
      "outputs": [
        {
          "name": "tokens",
          "type": "address[]"
        }
      ],
      "payable": false,
      "stateMutability": "view",
      "type": "function"
    },
    {
      "constant": false,
      "inputs": [
        {
          "name": "_tokenIndex",
          "type": "uint256"
        },
        {
          "name": "_tokenPairsIndexes",
          "type": "uint256[]"
        }
      ],
      "name": "addPairs",
      "outputs": [],
      "payable": false,
      "stateMutability": "nonpayable",
      "type": "function"
    },
    {
      "constant": false,
      "inputs": [
        {
          "name": "_tokenIndex",
          "type": "uint256"
        }
      ],
      "name": "removePairs",
      "outputs": [],
      "payable": false,
      "stateMutability": "nonpayable",
      "type": "function"
    },
    {
      "constant": true,
      "inputs": [],
      "name": "getTokenIndexesWithPairs",
      "outputs": [
        {
          "name": "",
          "type": "uint256[]"
        }
      ],
      "payable": false,
      "stateMutability": "view",
      "type": "function"
    },
    {
      "constant": true,
      "inputs": [
        {
          "name": "_index",
          "type": "uint256"
        }
      ],
      "name": "getPairsForTokenByIndex",
      "outputs": [
        {
          "name": "result",
          "type": "uint256[]"
        }
      ],
      "payable": false,
      "stateMutability": "view",
      "type": "function"
    },
    {
      "constant": true,
      "inputs": [
        {
          "name": "_tokens",
          "type": "address[]"
        }
      ],
      "name": "getTokenData",
      "outputs": [
        {
          "name": "names",
          "type": "string[]"
        },
        {
          "name": "symbols",
          "type": "string[]"
        },
        {
          "name": "decimals",
          "type": "uint256[]"
        }
      ],
      "payable": false,
      "stateMutability": "view",
      "type": "function"
    }
  ],
  "bytecode": "0x6080604052336000806101000a81548173ffffffffffffffffffffffffffffffffffffffff021916908373ffffffffffffffffffffffffffffffffffffffff1602179055506000809054906101000a900473ffffffffffffffffffffffffffffffffffffffff1673ffffffffffffffffffffffffffffffffffffffff16600073ffffffffffffffffffffffffffffffffffffffff167f8be0079c531659141344cd1fd0a4f28419497f9722a3daafe3b4186f6b6457e060405160405180910390a3611a8e806100cf6000396000f3fe6080604052600436106100d0576000357c0100000000000000000000000000000000000000000000000000000000900463ffffffff1680632e73288b146100d55780633ee7af55146100fe57806348f796d81461013b5780635702fd9714610164578063675b4ef1146101a1578063678f56c3146101de5780636c3824ef14610207578063809a865d146102305780638cce6fca1461026d5780638da5cb5b146102aa5780638f32d59b146102d55780639fd1dab014610300578063bf2eb19e1461032b578063e35568cb1461036a575b600080fd5b3480156100e157600080fd5b506100fc60048036036100f791908101906112e2565b610395565b005b34801561010a57600080fd5b50610125600480360361012091908101906112b9565b610501565b60405161013291906117c6565b60405180910390f35b34801561014757600080fd5b50610162600480360361015d9190810190611364565b610521565b005b34801561017057600080fd5b5061018b60048036036101869190810190611364565b610556565b60405161019891906117a4565b60405180910390f35b3480156101ad57600080fd5b506101c860048036036101c391908101906113e1565b6106fd565b6040516101d59190611861565b60405180910390f35b3480156101ea57600080fd5b506102056004803603610200919081019061138d565b61072d565b005b34801561021357600080fd5b5061022e600480360361022991908101906112e2565b610906565b005b34801561023c57600080fd5b5061025760048036036102529190810190611364565b610aa2565b6040516102649190611861565b60405180910390f35b34801561027957600080fd5b50610294600480360361028f9190810190611364565b610ac5565b6040516102a1919061171b565b60405180910390f35b3480156102b657600080fd5b506102bf610b03565b6040516102cc919061171b565b60405180910390f35b3480156102e157600080fd5b506102ea610b2c565b6040516102f791906117c6565b60405180910390f35b34801561030c57600080fd5b50610315610b83565b60405161032291906117a4565b60405180910390f35b34801561033757600080fd5b50610352600480360361034d91908101906112e2565b610bdb565b60405161036193929190611758565b60405180910390f35b34801561037657600080fd5b5061037f610f19565b60405161038c9190611736565b60405180910390f35b61039d610b2c565b15156103a857600080fd5b60008090505b81518110156104fd57600180600084848151811015156103ca57fe5b9060200190602002015173ffffffffffffffffffffffffffffffffffffffff1673ffffffffffffffffffffffffffffffffffffffff16815260200190815260200160002060006101000a81548160ff0219169083151502179055506002828281518110151561043557fe5b9060200190602002015190806001815401808255809150509060018203906000526020600020016000909192909190916101000a81548173ffffffffffffffffffffffffffffffffffffffff021916908373ffffffffffffffffffffffffffffffffffffffff160217905550507f42fb71c04e6650a34983ed55f09500bef00b288f2152356b1857630026235f1282828151811015156104d157fe5b906020019060200201516040516104e8919061171b565b60405180910390a180806001019150506103ae565b5050565b60016020528060005260406000206000915054906101000a900460ff1681565b610529610b2c565b151561053457600080fd5b60036000828152602001908152602001600020600061055391906110d7565b50565b6060600360008381526020019081526020016000208054905060405190808252806020026020018201604052801561059d5781602001602082028038833980820191505090505b50905060008090505b60036000848152602001908152602001600020805490508110156106f7576001151560016000600260036000888152602001908152602001600020858154811015156105ee57fe5b906000526020600020015481548110151561060557fe5b9060005260206000200160009054906101000a900473ffffffffffffffffffffffffffffffffffffffff1673ffffffffffffffffffffffffffffffffffffffff1673ffffffffffffffffffffffffffffffffffffffff16815260200190815260200160002060009054906101000a900460ff16151514156106cc5760036000848152602001908152602001600020818154811015156106a057fe5b906000526020600020015482828151811015156106b957fe5b90602001906020020181815250506106ea565b8282828151811015156106db57fe5b90602001906020020181815250505b80806001019150506105a6565b50919050565b60036020528160005260406000208181548110151561071857fe5b90600052602060002001600091509150505481565b610735610b2c565b151561074057600080fd5b60028054905082101515610789576040517f08c379a000000000000000000000000000000000000000000000000000000000815260040161078090611821565b60405180910390fd5b60008090505b81518110156109015760028054905082828151811015156107ac57fe5b906020019060200201511015156107f8576040517f08c379a00000000000000000000000000000000000000000000000000000000081526004016107ef90611801565b60405180910390fd5b82828281518110151561080757fe5b9060200190602002015114151515610854576040517f08c379a000000000000000000000000000000000000000000000000000000000815260040161084b906117e1565b60405180910390fd5b6000600360008581526020019081526020016000208054905014156108a05760048390806001815401808255809150509060018203906000526020600020016000909192909190915055505b6003600084815260200190815260200160002082828151811015156108c157fe5b906020019060200201519080600181540180825580915050906001820390600052602060002001600090919290919091505550808060010191505061078f565b505050565b61090e610b2c565b151561091957600080fd5b60008090505b8151811015610a9e576001151560016000848481518110151561093e57fe5b9060200190602002015173ffffffffffffffffffffffffffffffffffffffff1673ffffffffffffffffffffffffffffffffffffffff16815260200190815260200160002060009054906101000a900460ff1615151415156109d4576040517f08c379a00000000000000000000000000000000000000000000000000000000081526004016109cb90611841565b60405180910390fd5b60006001600084848151811015156109e857fe5b9060200190602002015173ffffffffffffffffffffffffffffffffffffffff1673ffffffffffffffffffffffffffffffffffffffff16815260200190815260200160002060006101000a81548160ff0219169083151502179055507f4eb129c82dcd3eedb52df2b0e6fb4cfa41ac64ee9d63ff081acbb1877e85d79b8282815181101515610a7257fe5b90602001906020020151604051610a89919061171b565b60405180910390a1808060010191505061091f565b5050565b600481815481101515610ab157fe5b906000526020600020016000915090505481565b600281815481101515610ad457fe5b906000526020600020016000915054906101000a900473ffffffffffffffffffffffffffffffffffffffff1681565b60008060009054906101000a900473ffffffffffffffffffffffffffffffffffffffff16905090565b60008060009054906101000a900473ffffffffffffffffffffffffffffffffffffffff1673ffffffffffffffffffffffffffffffffffffffff163373ffffffffffffffffffffffffffffffffffffffff1614905090565b60606004805480602002602001604051908101604052809291908181526020018280548015610bd157602002820191906000526020600020905b815481526020019060010190808311610bbd575b5050505050905090565b60608060608351604051908082528060200260200182016040528015610c1557816020015b6060815260200190600190039081610c005790505b5092508351604051908082528060200260200182016040528015610c4d57816020015b6060815260200190600190039081610c385790505b5091508351604051908082528060200260200182016040528015610c805781602001602082028038833980820191505090505b50905060008090505b8451811015610f11578481815181101515610ca057fe5b9060200190602002015173ffffffffffffffffffffffffffffffffffffffff166306fdde036040518163ffffffff167c010000000000000000000000000000000000000000000000000000000002815260040160006040518083038186803b158015610d0b57600080fd5b505afa158015610d1f573d6000803e3d6000fd5b505050506040513d6000823e3d601f19601f82011682018060405250610d489190810190611323565b8482815181101515610d5657fe5b906020019060200201819052508481815181101515610d7157fe5b9060200190602002015173ffffffffffffffffffffffffffffffffffffffff166395d89b416040518163ffffffff167c010000000000000000000000000000000000000000000000000000000002815260040160006040518083038186803b158015610ddc57600080fd5b505afa158015610df0573d6000803e3d6000fd5b505050506040513d6000823e3d601f19601f82011682018060405250610e199190810190611323565b8382815181101515610e2757fe5b906020019060200201819052508481815181101515610e4257fe5b9060200190602002015173ffffffffffffffffffffffffffffffffffffffff1663313ce5676040518163ffffffff167c010000000000000000000000000000000000000000000000000000000002815260040160206040518083038186803b158015610ead57600080fd5b505afa158015610ec1573d6000803e3d6000fd5b505050506040513d601f19601f82011682018060405250610ee5919081019061141d565b60ff168282815181101515610ef657fe5b90602001906020020181815250508080600101915050610c89565b509193909250565b6060600280549050604051908082528060200260200182016040528015610f4f5781602001602082028038833980820191505090505b50905060008090505b6002805490508110156110d35760016000600283815481101515610f7857fe5b9060005260206000200160009054906101000a900473ffffffffffffffffffffffffffffffffffffffff1673ffffffffffffffffffffffffffffffffffffffff1673ffffffffffffffffffffffffffffffffffffffff16815260200190815260200160002060009054906101000a900460ff161561107957600281815481101515610fff57fe5b9060005260206000200160009054906101000a900473ffffffffffffffffffffffffffffffffffffffff16828281518110151561103857fe5b9060200190602002019073ffffffffffffffffffffffffffffffffffffffff16908173ffffffffffffffffffffffffffffffffffffffff16815250506110c6565b6000828281518110151561108957fe5b9060200190602002019073ffffffffffffffffffffffffffffffffffffffff16908173ffffffffffffffffffffffffffffffffffffffff16815250505b8080600101915050610f58565b5090565b50805460008255906000526020600020908101906110f591906110f8565b50565b61111a91905b808211156111165760008160009055506001016110fe565b5090565b90565b600061112982356119e7565b905092915050565b600082601f830112151561114457600080fd5b8135611157611152826118a9565b61187c565b9150818183526020840193506020810190508385602084028201111561117c57600080fd5b60005b838110156111ac5781611192888261111d565b84526020840193506020830192505060018101905061117f565b5050505092915050565b600082601f83011215156111c957600080fd5b81356111dc6111d7826118d1565b61187c565b9150818183526020840193506020810190508385602084028201111561120157600080fd5b60005b8381101561123157816112178882611291565b845260208401935060208301925050600181019050611204565b5050505092915050565b600082601f830112151561124e57600080fd5b815161126161125c826118f9565b61187c565b9150808252602083016020830185838301111561127d57600080fd5b611288838284611a10565b50505092915050565b600061129d82356119f9565b905092915050565b60006112b18251611a03565b905092915050565b6000602082840312156112cb57600080fd5b60006112d98482850161111d565b91505092915050565b6000602082840312156112f457600080fd5b600082013567ffffffffffffffff81111561130e57600080fd5b61131a84828501611131565b91505092915050565b60006020828403121561133557600080fd5b600082015167ffffffffffffffff81111561134f57600080fd5b61135b8482850161123b565b91505092915050565b60006020828403121561137657600080fd5b600061138484828501611291565b91505092915050565b600080604083850312156113a057600080fd5b60006113ae85828601611291565b925050602083013567ffffffffffffffff8111156113cb57600080fd5b6113d7858286016111b6565b9150509250929050565b600080604083850312156113f457600080fd5b600061140285828601611291565b925050602061141385828601611291565b9150509250929050565b60006020828403121561142f57600080fd5b600061143d848285016112a5565b91505092915050565b61144f8161199f565b82525050565b60006114608261194c565b80845260208401935061147283611925565b60005b828110156114a457611488868351611446565b61149182611978565b9150602086019550600181019050611475565b50849250505092915050565b60006114bb82611957565b808452602084019350836020820285016114d485611932565b60005b8481101561150d5783830388526114ef838351611588565b92506114fa82611985565b91506020880197506001810190506114d7565b508196508694505050505092915050565b600061152982611962565b80845260208401935061153b8361193f565b60005b8281101561156d5761155186835161170c565b61155a82611992565b915060208601955060018101905061153e565b50849250505092915050565b611582816119b1565b82525050565b60006115938261196d565b8084526115a7816020860160208601611a10565b6115b081611a43565b602085010191505092915050565b6000602582527f6120746f6b656e2063616e27742068617665206120706169722077697468206960208301527f7473656c660000000000000000000000000000000000000000000000000000006040830152606082019050919050565b6000602a82527f6120746f6b656e20646f65736e2774206578697374206f6e20746f6b656e506160208301527f697273496e6465786573000000000000000000000000000000000000000000006040830152606082019050919050565b6000602282527f746f6b656e20646f65736e2774206578697374206f6e20746f6b656e496e646560208301527f78200000000000000000000000000000000000000000000000000000000000006040830152606082019050919050565b6000601582527f746f6b656e20616c72656164792072656d6f76656400000000000000000000006020830152604082019050919050565b611715816119dd565b82525050565b60006020820190506117306000830184611446565b92915050565b600060208201905081810360008301526117508184611455565b905092915050565b6000606082019050818103600083015261177281866114b0565b9050818103602083015261178681856114b0565b9050818103604083015261179a818461151e565b9050949350505050565b600060208201905081810360008301526117be818461151e565b905092915050565b60006020820190506117db6000830184611579565b92915050565b600060208201905081810360008301526117fa816115be565b9050919050565b6000602082019050818103600083015261181a8161161b565b9050919050565b6000602082019050818103600083015261183a81611678565b9050919050565b6000602082019050818103600083015261185a816116d5565b9050919050565b6000602082019050611876600083018461170c565b92915050565b6000604051905081810181811067ffffffffffffffff8211171561189f57600080fd5b8060405250919050565b600067ffffffffffffffff8211156118c057600080fd5b602082029050602081019050919050565b600067ffffffffffffffff8211156118e857600080fd5b602082029050602081019050919050565b600067ffffffffffffffff82111561191057600080fd5b601f19601f8301169050602081019050919050565b6000602082019050919050565b6000602082019050919050565b6000602082019050919050565b600081519050919050565b600081519050919050565b600081519050919050565b600081519050919050565b6000602082019050919050565b6000602082019050919050565b6000602082019050919050565b60006119aa826119bd565b9050919050565b60008115159050919050565b600073ffffffffffffffffffffffffffffffffffffffff82169050919050565b6000819050919050565b60006119f2826119bd565b9050919050565b6000819050919050565b600060ff82169050919050565b60005b83811015611a2e578082015181840152602081019050611a13565b83811115611a3d576000848401525b50505050565b6000601f19601f830116905091905056fea265627a7a723058204f93e86e57f835d85b1aeac76db510a1b0d9b7a289c89c7928baa10b98b03b856c6578706572696d656e74616cf50037",
  "source": "pragma solidity 0.5.0;\npragma experimental ABIEncoderV2;\n\ncontract Ownable {\n  address private _owner;\n\n  event OwnershipTransferred(\n    address indexed previousOwner,\n    address indexed newOwner\n  );\n\n  /**\n   * @dev The Ownable constructor sets the original `owner` of the contract to the sender\n   * account.\n   */\n  constructor() internal {\n    _owner = msg.sender;\n    emit OwnershipTransferred(address(0), _owner);\n  }\n\n  /**\n   * @return the address of the owner.\n   */\n  function owner() public view returns(address) {\n    return _owner;\n  }\n\n  /**\n   * @dev Throws if called by any account other than the owner.\n   */\n  modifier onlyOwner() {\n    require(isOwner());\n    _;\n  }\n  \n  /**\n   * @return true if `msg.sender` is the owner of the contract.\n   */\n  function isOwner() public view returns(bool) {\n    return msg.sender == _owner;\n  }\n}\n\ncontract ERC20Interface {\n  function name() public view returns (string memory);\n  function symbol() public view returns (string memory);\n  function decimals() public view returns (uint8);\n}\n\ncontract RegistryLookup is Ownable{\n\n    mapping (address => bool) public authorisedStatus;\n    event AddNewToken(address newToken);\n    event RemoveToken(address token);\n\n    address[] public authorisedTokens;\n\n    function addNewTokens(address[] memory _tokens) public onlyOwner {\n        for (uint i = 0; i < _tokens.length; i++) {\n            authorisedStatus[_tokens[i]] = true;\n            authorisedTokens.push(_tokens[i]);\n            emit AddNewToken(_tokens[i]);\n        }\n    }\n\n    function removeTokens(address[] memory _tokens) public onlyOwner {\n        for (uint i = 0; i < _tokens.length; i++) {\n            require(authorisedStatus[_tokens[i]] == true, \"token already removed\");\n            authorisedStatus[_tokens[i]] = false;\n            emit RemoveToken(_tokens[i]);\n        }\n    }\n\n    function getAvailableTokens() public view returns(address[] memory tokens) {\n        tokens = new address[](authorisedTokens.length);\n\n        for (uint i = 0; i < authorisedTokens.length; i++) {\n            if (authorisedStatus[authorisedTokens[i]]) {\n                tokens[i] = authorisedTokens[i];\n            } else {\n                tokens[i] = address(0);\n            }\n        }\n    }\n\n    mapping (uint => uint[]) public pairs;\n    uint[] public tokensWithPairsLUT;\n\n    // Adds N pairs for a given token (by index stored on authorisedTokens)\n    function addPairs(uint _tokenIndex, uint[] memory _tokenPairsIndexes) public onlyOwner {\n      require(_tokenIndex < authorisedTokens.length, \"token doesn't exist on tokenIndex \");\n      for( uint i = 0; i < _tokenPairsIndexes.length; i++ ){\n        require(_tokenPairsIndexes[i] < authorisedTokens.length, \"a token doesn't exist on tokenPairsIndexes\");\n        require(_tokenPairsIndexes[i] != _tokenIndex, \"a token can't have a pair with itself\");\n        if(pairs[_tokenIndex].length == 0) {\n          tokensWithPairsLUT.push(_tokenIndex);\n        }\n        pairs[_tokenIndex].push(_tokenPairsIndexes[i]);\n      }\n    }\n\n    function removePairs( uint _tokenIndex ) public onlyOwner {\n      delete pairs[_tokenIndex];\n    }\n\n    function getTokenIndexesWithPairs() public view returns(uint[] memory) {\n      return tokensWithPairsLUT;\n    }\n\n    function getPairsForTokenByIndex(uint _index) public view returns(uint[] memory result) {\n      result = new uint[](pairs[_index].length);\n      for( uint i = 0; i < pairs[_index].length; i++ ) {\n        if(authorisedStatus[authorisedTokens[pairs[_index][i]]] == true){\n          result[i] = pairs[_index][i];\n        } else {\n          // removed tokens will be sent as _index (better than 0, because tokens cant have a pair with itself, while 0 is a valid index)\n          result[i] = _index;\n        }\n      }\n    }\n\n    function getTokenData(address[] memory _tokens) public view returns (\n      string[] memory names, string[] memory symbols, uint[] memory decimals\n      ) {\n      names = new string[](_tokens.length);\n      symbols = new string[](_tokens.length);\n      decimals = new uint[](_tokens.length);\n      for (uint i = 0; i < _tokens.length; i++) {\n          names[i] = ERC20Interface(_tokens[i]).name();\n          symbols[i] = ERC20Interface(_tokens[i]).symbol();\n          decimals[i] = ERC20Interface(_tokens[i]).decimals();\n      }\n    }\n\n}",
  "sourcePath": "/Users/jorge/dev/token-registry/contracts/RegistryLookup.sol",
  "compiler": {
    "name": "solc",
    "version": "0.5.0+commit.1d4f565a.Emscripten.clang"
  },
  "schemaVersion": "3.0.9",
  "updatedAt": "2019-05-28T12:52:00.874Z",
  "devdoc": {
    "methods": {
      "isOwner()": {
        "return": "true if `msg.sender` is the owner of the contract."
      },
      "owner()": {
        "return": "the address of the owner."
      }
    }
  },
  "userdoc": {
    "methods": {}
  }
}