{
  "contractName": "RegistryLookup",
  "abi": [
    {
      "constant": true,
      "inputs": [
        {
          "name": "",
          "type": "address"
        }
      ],
      "name": "authorisedStatus",
      "outputs": [
        {
          "name": "",
          "type": "bool"
        }
      ],
      "payable": false,
      "stateMutability": "view",
      "type": "function"
    },
    {
      "constant": true,
      "inputs": [
        {
          "name": "",
          "type": "uint256"
        },
        {
          "name": "",
          "type": "uint256"
        }
      ],
      "name": "authorisedTokens",
      "outputs": [
        {
          "name": "",
          "type": "address"
        }
      ],
      "payable": false,
      "stateMutability": "view",
      "type": "function"
    },
    {
      "constant": true,
      "inputs": [
        {
          "name": "",
          "type": "uint256"
        }
      ],
      "name": "owner",
      "outputs": [
        {
          "name": "",
          "type": "address"
        }
      ],
      "payable": false,
      "stateMutability": "view",
      "type": "function"
    },
    {
      "constant": true,
      "inputs": [
        {
          "name": "",
          "type": "uint256"
        }
      ],
      "name": "isOwner",
      "outputs": [
        {
          "name": "",
          "type": "bool"
        }
      ],
      "payable": false,
      "stateMutability": "view",
      "type": "function"
    },
    {
      "constant": true,
      "inputs": [
        {
          "indexed": false,
          "name": "newToken",
          "type": "address"
        }
      ],
      "name": "AddNewToken",
      "outputs": [
        {
          "name": "",
          "type": "address"
        }
      ],
      "payable": false,
      "stateMutability": "view",
      "type": "event",
      "anonymous": false
    },
    {
      "constant": true,
      "inputs": [
        {
          "indexed": false,
          "name": "token",
          "type": "address"
        }
      ],
      "name": "RemoveToken",
      "outputs": [
        {
          "name": "",
          "type": "bool"
        }
      ],
      "payable": false,
      "stateMutability": "view",
      "type": "event",
      "anonymous": false
    },
    {
      "anonymous": false,
      "inputs": [
        {
          "indexed": true,
          "name": "previousOwner",
          "type": "address"
        },
        {
          "indexed": true,
          "name": "newOwner",
          "type": "address"
        }
      ],
      "name": "OwnershipTransferred",
      "type": "event"
    },
    {
      "anonymous": false,
      "inputs": [
        {
          "indexed": false,
          "name": "_tokens",
          "type": "address[]"
        }
      ],
      "name": "addNewTokens",
      "type": "function",
      "constant": false,
      "outputs": [],
      "payable": false,
      "stateMutability": "nonpayable"
    },
    {
      "anonymous": false,
      "inputs": [
        {
          "indexed": true,
          "name": "_tokens",
          "type": "address[]"
        },
        {
          "indexed": true,
          "name": "newOwner",
          "type": "address"
        }
      ],
      "name": "removeTokens",
      "type": "function",
      "constant": false,
      "outputs": [],
      "payable": false,
      "stateMutability": "nonpayable"
    },
    {
      "constant": true,
      "inputs": [
        {
          "name": "_tokens",
          "type": "address[]"
        }
      ],
      "name": "getAvailableTokens",
      "outputs": [
        {
          "name": "tokens",
          "type": "address[]"
        }
      ],
      "payable": false,
      "stateMutability": "view",
      "type": "function"
    },
    {
      "constant": true,
      "inputs": [
        {
          "name": "_tokens",
          "type": "address[]"
        }
      ],
      "name": "getTokenData",
      "outputs": [
        {
          "name": "names",
          "type": "string[]"
        },
        {
          "name": "symbols",
          "type": "string[]"
        },
        {
          "name": "decimals",
          "type": "uint256[]"
        }
      ],
      "payable": false,
      "stateMutability": "view",
      "type": "function"
    },
    {
      "constant": true,
      "inputs": [
        {
          "name": "trader",
          "type": "address"
        },
        {
          "name": "assetAddresses",
          "type": "address[]"
        }
      ],
      "name": "getExternalBalances",
      "outputs": [
        {
          "name": "",
          "type": "uint256[]"
        }
      ],
      "payable": false,
      "stateMutability": "view",
      "type": "function"
    },
    {
      "constant": false,
      "inputs": [
        {
          "name": "_tokenIndex",
          "type": "uint256"
        },
        {
          "name": "_tokenPairsIndexes",
          "type": "uint256[]"
        }
      ],
      "name": "addPairs",
      "outputs": [],
      "payable": false,
      "stateMutability": "nonpayable",
      "type": "function"
    },
    {
      "constant": false,
      "inputs": [
        {
          "name": "_tokenIndex",
          "type": "uint256"
        }
      ],
      "name": "removePairs",
      "outputs": [],
      "payable": false,
      "stateMutability": "nonpayable",
      "type": "function"
    },
    {
      "constant": true,
      "inputs": [],
      "name": "getTokenIndexesWithPairs",
      "outputs": [
        {
          "name": "",
          "type": "uint256[]"
        }
      ],
      "payable": false,
      "stateMutability": "view",
      "type": "function"
    },
    {
      "constant": true,
      "inputs": [
        {
          "name": "_index",
          "type": "uint256"
        }
      ],
      "name": "getPairsForTokenByIndex",
      "outputs": [
        {
          "name": "result",
          "type": "uint256[]"
        }
      ],
      "payable": false,
      "stateMutability": "view",
      "type": "function"
    },
    {
      "constant": true,
      "inputs": [
        {
          "name": "_tokens",
          "type": "address[]"
        }
      ],
      "name": "getTokenData",
      "outputs": [
        {
          "name": "names",
          "type": "string[]"
        },
        {
          "name": "symbols",
          "type": "string[]"
        },
        {
          "name": "decimals",
          "type": "uint256[]"
        }
      ],
      "payable": false,
      "stateMutability": "view",
      "type": "function"
    }
  ],
  "bytecode": "0x6080604052336000806101000a81548173ffffffffffffffffffffffffffffffffffffffff021916908373ffffffffffffffffffffffffffffffffffffffff1602179055506000809054906101000a900473ffffffffffffffffffffffffffffffffffffffff1673ffffffffffffffffffffffffffffffffffffffff16600073ffffffffffffffffffffffffffffffffffffffff167f8be0079c531659141344cd1fd0a4f28419497f9722a3daafe3b4186f6b6457e060405160405180910390a3611819806100cf6000396000f3fe608060405260043610610099576000357c0100000000000000000000000000000000000000000000000000000000900463ffffffff1680632e73288b1461009e5780633ee7af55146100c75780636c3824ef146101045780638cce6fca1461012d5780638da5cb5b1461016a5780638f32d59b14610195578063bf2eb19e146101c0578063c3714723146101ff578063e35568cb1461023c575b600080fd5b3480156100aa57600080fd5b506100c560048036036100c0919081019061125b565b610267565b005b3480156100d357600080fd5b506100ee60048036036100e991908101906111de565b6103eb565b6040516100fb91906115ea565b60405180910390f35b34801561011057600080fd5b5061012b6004803603610126919081019061125b565b61040b565b005b34801561013957600080fd5b50610154600480360361014f9190810190611306565b6105bf565b604051610161919061153f565b60405180910390f35b34801561017657600080fd5b5061017f6105fd565b60405161018c919061153f565b60405180910390f35b3480156101a157600080fd5b506101aa610626565b6040516101b791906115ea565b60405180910390f35b3480156101cc57600080fd5b506101e760048036036101e2919081019061125b565b61067d565b6040516101f69392919061157c565b60405180910390f35b34801561020b57600080fd5b5061022660048036036102219190810190611207565b6108b9565b60405161023391906115c8565b60405180910390f35b34801561024857600080fd5b506102516109ee565b60405161025e919061155a565b60405180910390f35b61026f610626565b151561027a57600080fd5b60008090505b81518163ffffffff1610156103e7576001806000848463ffffffff168151811015156102a857fe5b9060200190602002015173ffffffffffffffffffffffffffffffffffffffff1673ffffffffffffffffffffffffffffffffffffffff16815260200190815260200160002060006101000a81548160ff0219169083151502179055506002828263ffffffff1681518110151561031957fe5b9060200190602002015190806001815401808255809150509060018203906000526020600020016000909192909190916101000a81548173ffffffffffffffffffffffffffffffffffffffff021916908373ffffffffffffffffffffffffffffffffffffffff160217905550507f42fb71c04e6650a34983ed55f09500bef00b288f2152356b1857630026235f12828263ffffffff168151811015156103bb57fe5b906020019060200201516040516103d2919061153f565b60405180910390a18080600101915050610280565b5050565b60016020528060005260406000206000915054906101000a900460ff1681565b610413610626565b151561041e57600080fd5b60008090505b81518163ffffffff1610156105bb576001151560016000848463ffffffff1681518110151561044f57fe5b9060200190602002015173ffffffffffffffffffffffffffffffffffffffff1673ffffffffffffffffffffffffffffffffffffffff16815260200190815260200160002060009054906101000a900460ff1615151415156104e5576040517f08c379a00000000000000000000000000000000000000000000000000000000081526004016104dc90611605565b60405180910390fd5b600060016000848463ffffffff168151811015156104ff57fe5b9060200190602002015173ffffffffffffffffffffffffffffffffffffffff1673ffffffffffffffffffffffffffffffffffffffff16815260200190815260200160002060006101000a81548160ff0219169083151502179055507f4eb129c82dcd3eedb52df2b0e6fb4cfa41ac64ee9d63ff081acbb1877e85d79b828263ffffffff1681518110151561058f57fe5b906020019060200201516040516105a6919061153f565b60405180910390a18080600101915050610424565b5050565b6002818154811015156105ce57fe5b906000526020600020016000915054906101000a900473ffffffffffffffffffffffffffffffffffffffff1681565b60008060009054906101000a900473ffffffffffffffffffffffffffffffffffffffff16905090565b60008060009054906101000a900473ffffffffffffffffffffffffffffffffffffffff1673ffffffffffffffffffffffffffffffffffffffff163373ffffffffffffffffffffffffffffffffffffffff1614905090565b606080606083516040519080825280602002602001820160405280156106b757816020015b60608152602001906001900390816106a25790505b50925083516040519080825280602002602001820160405280156106ef57816020015b60608152602001906001900390816106da5790505b50915083516040519080825280602002602001820160405280156107225781602001602082028038833980820191505090505b50905060008090505b84518163ffffffff1610156108b157610760858263ffffffff1681518110151561075157fe5b90602001906020020151610bca565b848263ffffffff1681518110151561077457fe5b906020019060200201819052506107a7858263ffffffff1681518110151561079857fe5b90602001906020020151610d2d565b838263ffffffff168151811015156107bb57fe5b90602001906020020181905250848163ffffffff168151811015156107dc57fe5b9060200190602002015173ffffffffffffffffffffffffffffffffffffffff1663313ce5676040518163ffffffff167c010000000000000000000000000000000000000000000000000000000002815260040160206040518083038186803b15801561084757600080fd5b505afa15801561085b573d6000803e3d6000fd5b505050506040513d601f19601f8201168201806040525061087f9190810190611358565b60ff16828263ffffffff1681518110151561089657fe5b9060200190602002018181525050808060010191505061072b565b509193909250565b60608082516040519080825280602002602001820160405280156108ec5781602001602082028038833980820191505090505b50905060008090505b83518110156109e357838181518110151561090c57fe5b9060200190602002015173ffffffffffffffffffffffffffffffffffffffff166370a08231866040518263ffffffff167c010000000000000000000000000000000000000000000000000000000002815260040161096a919061153f565b60206040518083038186803b15801561098257600080fd5b505afa158015610996573d6000803e3d6000fd5b505050506040513d601f19601f820116820180604052506109ba919081019061132f565b82828151811015156109c857fe5b906020019060200201818152505080806001019150506108f5565b508091505092915050565b6060600280549050604051908082528060200260200182016040528015610a245781602001602082028038833980820191505090505b50905060008090505b6002805490508163ffffffff161015610bc6576001600060028363ffffffff16815481101515610a5957fe5b9060005260206000200160009054906101000a900473ffffffffffffffffffffffffffffffffffffffff1673ffffffffffffffffffffffffffffffffffffffff1673ffffffffffffffffffffffffffffffffffffffff16815260200190815260200160002060009054906101000a900460ff1615610b665760028163ffffffff16815481101515610ae657fe5b9060005260206000200160009054906101000a900473ffffffffffffffffffffffffffffffffffffffff16828263ffffffff16815181101515610b2557fe5b9060200190602002019073ffffffffffffffffffffffffffffffffffffffff16908173ffffffffffffffffffffffffffffffffffffffff1681525050610bb9565b6000828263ffffffff16815181101515610b7c57fe5b9060200190602002019073ffffffffffffffffffffffffffffffffffffffff16908173ffffffffffffffffffffffffffffffffffffffff16815250505b8080600101915050610a2d565b5090565b606080610c6f8373ffffffffffffffffffffffffffffffffffffffff166306fdde036040518163ffffffff167c010000000000000000000000000000000000000000000000000000000002815260040160206040518083038186803b158015610c3257600080fd5b505afa158015610c46573d6000803e3d6000fd5b505050506040513d601f19601f82011682018060405250610c6a919081019061129c565b610e90565b9050606081905060018151111515610d23578373ffffffffffffffffffffffffffffffffffffffff166306fdde036040518163ffffffff167c010000000000000000000000000000000000000000000000000000000002815260040160006040518083038186803b158015610ce357600080fd5b505afa158015610cf7573d6000803e3d6000fd5b505050506040513d6000823e3d601f19601f82011682018060405250610d2091908101906112c5565b91505b8192505050919050565b606080610dd28373ffffffffffffffffffffffffffffffffffffffff166395d89b416040518163ffffffff167c010000000000000000000000000000000000000000000000000000000002815260040160206040518083038186803b158015610d9557600080fd5b505afa158015610da9573d6000803e3d6000fd5b505050506040513d601f19601f82011682018060405250610dcd919081019061129c565b610e90565b9050606081905060018151111515610e86578373ffffffffffffffffffffffffffffffffffffffff166395d89b416040518163ffffffff167c010000000000000000000000000000000000000000000000000000000002815260040160006040518083038186803b158015610e4657600080fd5b505afa158015610e5a573d6000803e3d6000fd5b505050506040513d6000823e3d601f19601f82011682018060405250610e8391908101906112c5565b91505b8192505050919050565b60608060206040519080825280601f01601f191660200182016040528015610ec75781602001600182028038833980820191505090505b509050600080905060008090505b6020811015610f965760008160080260020a866001900402600102905060007f010000000000000000000000000000000000000000000000000000000000000002817effffffffffffffffffffffffffffffffffffffffffffffffffffffffffffff1916141515610f8857808484815181101515610f4f57fe5b9060200101907effffffffffffffffffffffffffffffffffffffffffffffffffffffffffffff1916908160001a90535082806001019350505b508080600101915050610ed5565b506060816040519080825280601f01601f191660200182016040528015610fcc5781602001600182028038833980820191505090505b50905060008090505b828163ffffffff16101561109357838163ffffffff16815181101515610ff757fe5b9060200101517f010000000000000000000000000000000000000000000000000000000000000090047f010000000000000000000000000000000000000000000000000000000000000002828263ffffffff1681518110151561105657fe5b9060200101907effffffffffffffffffffffffffffffffffffffffffffffffffffffffffffff1916908160001a9053508080600101915050610fd5565b50809350505050919050565b60006110ab8235611768565b905092915050565b600082601f83011215156110c657600080fd5b81356110d96110d482611652565b611625565b915081818352602084019350602081019050838560208402820111156110fe57600080fd5b60005b8381101561112e5781611114888261109f565b845260208401935060208301925050600181019050611101565b5050505092915050565b6000611144825161177a565b905092915050565b600082601f830112151561115f57600080fd5b815161117261116d8261167a565b611625565b9150808252602083016020830185838301111561118e57600080fd5b61119983828461179b565b50505092915050565b60006111ae8235611784565b905092915050565b60006111c28251611784565b905092915050565b60006111d6825161178e565b905092915050565b6000602082840312156111f057600080fd5b60006111fe8482850161109f565b91505092915050565b6000806040838503121561121a57600080fd5b60006112288582860161109f565b925050602083013567ffffffffffffffff81111561124557600080fd5b611251858286016110b3565b9150509250929050565b60006020828403121561126d57600080fd5b600082013567ffffffffffffffff81111561128757600080fd5b611293848285016110b3565b91505092915050565b6000602082840312156112ae57600080fd5b60006112bc84828501611138565b91505092915050565b6000602082840312156112d757600080fd5b600082015167ffffffffffffffff8111156112f157600080fd5b6112fd8482850161114c565b91505092915050565b60006020828403121561131857600080fd5b6000611326848285016111a2565b91505092915050565b60006020828403121561134157600080fd5b600061134f848285016111b6565b91505092915050565b60006020828403121561136a57600080fd5b6000611378848285016111ca565b91505092915050565b61138a81611720565b82525050565b600061139b826116cd565b8084526020840193506113ad836116a6565b60005b828110156113df576113c3868351611381565b6113cc826116f9565b91506020860195506001810190506113b0565b50849250505092915050565b60006113f6826116d8565b8084526020840193508360208202850161140f856116b3565b60005b8481101561144857838303885261142a8383516114c3565b925061143582611706565b9150602088019750600181019050611412565b508196508694505050505092915050565b6000611464826116e3565b808452602084019350611476836116c0565b60005b828110156114a85761148c868351611530565b61149582611713565b9150602086019550600181019050611479565b50849250505092915050565b6114bd81611732565b82525050565b60006114ce826116ee565b8084526114e281602086016020860161179b565b6114eb816117ce565b602085010191505092915050565b6000601582527f746f6b656e20616c72656164792072656d6f76656400000000000000000000006020830152604082019050919050565b6115398161175e565b82525050565b60006020820190506115546000830184611381565b92915050565b600060208201905081810360008301526115748184611390565b905092915050565b6000606082019050818103600083015261159681866113eb565b905081810360208301526115aa81856113eb565b905081810360408301526115be8184611459565b9050949350505050565b600060208201905081810360008301526115e28184611459565b905092915050565b60006020820190506115ff60008301846114b4565b92915050565b6000602082019050818103600083015261161e816114f9565b9050919050565b6000604051905081810181811067ffffffffffffffff8211171561164857600080fd5b8060405250919050565b600067ffffffffffffffff82111561166957600080fd5b602082029050602081019050919050565b600067ffffffffffffffff82111561169157600080fd5b601f19601f8301169050602081019050919050565b6000602082019050919050565b6000602082019050919050565b6000602082019050919050565b600081519050919050565b600081519050919050565b600081519050919050565b600081519050919050565b6000602082019050919050565b6000602082019050919050565b6000602082019050919050565b600061172b8261173e565b9050919050565b60008115159050919050565b600073ffffffffffffffffffffffffffffffffffffffff82169050919050565b6000819050919050565b60006117738261173e565b9050919050565b6000819050919050565b6000819050919050565b600060ff82169050919050565b60005b838110156117b957808201518184015260208101905061179e565b838111156117c8576000848401525b50505050565b6000601f19601f830116905091905056fea265627a7a72305820a06ebd9d761ac284671ff7a7cc3632c8271fd28acd05e646235144fc2104c5236c6578706572696d656e74616cf50037",
  "source": "pragma solidity 0.5.0;\npragma experimental ABIEncoderV2;\n\ncontract Ownable {\n  address private _owner;\n\n  event OwnershipTransferred(\n    address indexed previousOwner,\n    address indexed newOwner\n  );\n\n  /**\n   * @dev The Ownable constructor sets the original `owner` of the contract to the sender\n   * account.\n   */\n  constructor() internal {\n    _owner = msg.sender;\n    emit OwnershipTransferred(address(0), _owner);\n  }\n\n  /**\n   * @return the address of the owner.\n   */\n  function owner() public view returns(address) {\n    return _owner;\n  }\n\n  /**\n   * @dev Throws if called by any account other than the owner.\n   */\n  modifier onlyOwner() {\n    require(isOwner());\n    _;\n  }\n  \n  /**\n   * @return true if `msg.sender` is the owner of the contract.\n   */\n  function isOwner() public view returns(bool) {\n    return msg.sender == _owner;\n  }\n}\n\ncontract ERC20Interface {\n  function name() public view returns (string memory);\n  function symbol() public view returns (string memory);\n  function decimals() public view returns (uint8);\n  function balanceOf(address _owner) public view returns (uint256 balance);\n}\n\ncontract ERC20BadInterface {\n  function name() public view returns (bytes32);\n  function symbol() public view returns (bytes32);\n  function decimals() public view returns (uint8);\n  function balanceOf(address _owner) public view returns (uint256 balance);\n}\n\ncontract RegistryLookup is Ownable{\n\n    mapping (address => bool) public authorisedStatus;\n    event AddNewToken(address newToken);\n    event RemoveToken(address token);\n\n    address[] public authorisedTokens;\n\n    function addNewTokens(address[] memory _tokens) public onlyOwner {\n        for (uint32 i = 0; i < _tokens.length; i++) {\n            authorisedStatus[_tokens[i]] = true;\n            authorisedTokens.push(_tokens[i]);\n            emit AddNewToken(_tokens[i]);\n        }\n    }\n\n    function removeTokens(address[] memory _tokens) public onlyOwner {\n        for (uint32 i = 0; i < _tokens.length; i++) {\n            require(authorisedStatus[_tokens[i]] == true, \"token already removed\");\n            authorisedStatus[_tokens[i]] = false;\n            emit RemoveToken(_tokens[i]);\n        }\n    }\n\n    function getAvailableTokens() public view returns(address[] memory tokens) {\n        tokens = new address[](authorisedTokens.length);\n\n        for (uint32 i = 0; i < authorisedTokens.length; i++) {\n            if (authorisedStatus[authorisedTokens[i]]) {\n                tokens[i] = authorisedTokens[i];\n            } else {\n                tokens[i] = address(0);\n            }\n        }\n    }\n\n    function bytes32ToString(bytes32 x) private pure returns (string memory) {\n      bytes memory bytesString = new bytes(32);\n      uint charCount = 0;\n      for (uint j = 0; j < 32; j++) {\n        byte char = byte(bytes32(uint(x) * 2 ** (8 * j)));\n        if (char != 0) {\n          bytesString[charCount] = char;\n          charCount++;\n        }\n      }\n      bytes memory bytesStringTrimmed = new bytes(charCount);\n      for (uint32 j = 0; j < charCount; j++) {\n        bytesStringTrimmed[j] = bytesString[j];\n      }\n      return string(bytesStringTrimmed);\n    }\n\n    function getTokenName(address tokenAddress) private view returns (string memory){\n      // check if bytes32 call returns correctly\n      string memory name = bytes32ToString(ERC20BadInterface(tokenAddress).name());\n      bytes memory nameBytes = bytes(name);\n      if(nameBytes.length <= 1){\n        name = ERC20Interface(tokenAddress).name();\n      }\n      return name;\n    }\n\n    function getTokenSymbol(address tokenAddress) private view returns (string memory){\n      // check if bytes32 call returns correctly\n      string memory symbol = bytes32ToString(ERC20BadInterface(tokenAddress).symbol());\n      bytes memory symbolBytes = bytes(symbol);\n      if(symbolBytes.length <= 1){\n        symbol = ERC20Interface(tokenAddress).symbol();\n      }\n      return symbol;\n    }\n\n    // get name, symbol and decimals for multiple tokens\n    function getTokenData(address[] memory _tokens) public view returns (\n      string[] memory names, string[] memory symbols, uint[] memory decimals\n      ) {\n      names = new string[](_tokens.length);\n      symbols = new string[](_tokens.length);\n      decimals = new uint[](_tokens.length);\n      for (uint32 i = 0; i < _tokens.length; i++) {\n        names[i] = getTokenName(_tokens[i]);\n        symbols[i] = getTokenSymbol(_tokens[i]);\n        decimals[i] = ERC20Interface(_tokens[i]).decimals();\n      }\n    }\n\n    // get external balance of multiple tokens\n    function getExternalBalances(address trader, address[] memory assetAddresses) public view returns (uint256[] memory) {\n        uint256[] memory balances = new uint256[](assetAddresses.length);\n        for (uint i = 0; i < assetAddresses.length; i++) {\n            balances[i] = ERC20Interface(assetAddresses[i]).balanceOf(trader);\n        }\n        return balances;\n    }\n\n}",
  "sourcePath": "/Users/jorge/dev/ethfinex/ethtex-registry/contracts/RegistryLookup.sol",
  "compiler": {
    "name": "solc",
    "version": "0.5.0+commit.1d4f565a.Emscripten.clang"
  },
  "schemaVersion": "3.0.9",
  "updatedAt": "2019-06-07T13:07:33.335Z",
  "devdoc": {
    "methods": {
      "isOwner()": {
        "return": "true if `msg.sender` is the owner of the contract."
      },
      "owner()": {
        "return": "the address of the owner."
      }
    }
  },
  "userdoc": {
    "methods": {}
  }
}